{
  "contractName": "SolarCharge",
  "abi": [
    {
      "constant": true,
      "inputs": [],
      "name": "numUsers",
      "outputs": [
        {
          "name": "",
          "type": "uint256"
        }
      ],
      "payable": false,
      "stateMutability": "view",
      "type": "function"
    },
    {
      "constant": true,
      "inputs": [],
      "name": "numStations",
      "outputs": [
        {
          "name": "",
          "type": "uint256"
        }
      ],
      "payable": false,
      "stateMutability": "view",
      "type": "function"
    },
    {
      "constant": true,
      "inputs": [],
      "name": "owner",
      "outputs": [
        {
          "name": "",
          "type": "address"
        }
      ],
      "payable": false,
      "stateMutability": "view",
      "type": "function"
    },
    {
      "constant": true,
      "inputs": [
        {
          "name": "",
          "type": "uint256"
        }
      ],
      "name": "stations",
      "outputs": [
        {
          "name": "rate",
          "type": "uint256"
        },
        {
          "name": "location",
          "type": "string"
        },
        {
          "name": "coinBalance",
          "type": "uint256"
        },
        {
          "name": "lastActivated",
          "type": "uint256"
        },
        {
          "name": "lastDuration",
          "type": "uint256"
        }
      ],
      "payable": false,
      "stateMutability": "view",
      "type": "function"
    },
    {
      "constant": true,
      "inputs": [
        {
          "name": "",
          "type": "bytes32"
        }
      ],
      "name": "users",
      "outputs": [
        {
          "name": "name",
          "type": "string"
        },
        {
          "name": "mobileno",
          "type": "string"
        },
        {
          "name": "userAccount",
          "type": "address"
        },
        {
          "name": "amountPaid",
          "type": "uint256"
        },
        {
          "name": "solcoins",
          "type": "uint256"
        }
      ],
      "payable": false,
      "stateMutability": "view",
      "type": "function"
    },
    {
      "constant": true,
      "inputs": [],
      "name": "coinRate",
      "outputs": [
        {
          "name": "",
          "type": "uint256"
        }
      ],
      "payable": false,
      "stateMutability": "view",
      "type": "function"
    },
    {
      "inputs": [],
      "payable": false,
      "stateMutability": "nonpayable",
      "type": "constructor"
    },
    {
      "constant": false,
      "inputs": [
        {
          "name": "_email",
          "type": "string"
        },
        {
          "name": "_name",
          "type": "string"
        },
        {
          "name": "_mobileno",
          "type": "string"
        }
      ],
      "name": "registerUser",
      "outputs": [],
      "payable": true,
      "stateMutability": "payable",
      "type": "function"
    },
    {
      "constant": false,
      "inputs": [
        {
          "name": "_email",
          "type": "string"
        }
      ],
      "name": "buyCoins",
      "outputs": [],
      "payable": false,
      "stateMutability": "nonpayable",
      "type": "function"
    },
    {
      "constant": false,
      "inputs": [
        {
          "name": "ID",
          "type": "uint256"
        },
        {
          "name": "_rate",
          "type": "uint256"
        },
        {
          "name": "_location",
          "type": "string"
        }
      ],
      "name": "addStation",
      "outputs": [],
      "payable": false,
      "stateMutability": "nonpayable",
      "type": "function"
    },
    {
      "constant": false,
      "inputs": [
        {
          "name": "_email",
          "type": "string"
        },
        {
          "name": "ID",
          "type": "uint256"
        },
        {
          "name": "duration",
          "type": "uint256"
        }
      ],
      "name": "activateStation",
      "outputs": [],
      "payable": false,
      "stateMutability": "nonpayable",
      "type": "function"
    },
    {
      "constant": true,
      "inputs": [
        {
          "name": "ID",
          "type": "uint256"
        }
      ],
      "name": "getStationState",
      "outputs": [
        {
          "name": "calcValue",
          "type": "uint256"
        }
      ],
      "payable": false,
      "stateMutability": "view",
      "type": "function"
    },
    {
      "constant": true,
      "inputs": [
        {
          "name": "_email",
          "type": "string"
        }
      ],
      "name": "getUser",
      "outputs": [
        {
          "name": "name",
          "type": "string"
        },
        {
          "name": "number",
          "type": "string"
        },
        {
          "name": "userAccount",
          "type": "address"
        },
        {
          "name": "amountPaid",
          "type": "uint256"
        },
        {
          "name": "solcoins",
          "type": "uint256"
        }
      ],
      "payable": false,
      "stateMutability": "view",
      "type": "function"
    },
    {
      "constant": true,
      "inputs": [
        {
          "name": "ID",
          "type": "uint256"
        }
      ],
      "name": "getStation",
      "outputs": [
        {
          "name": "rate",
          "type": "uint256"
        },
        {
          "name": "location",
          "type": "string"
        },
        {
          "name": "coinBalance",
          "type": "uint256"
        },
        {
          "name": "lastActivated",
          "type": "uint256"
        },
        {
          "name": "lastDuration",
          "type": "uint256"
        }
      ],
      "payable": false,
      "stateMutability": "view",
      "type": "function"
    },
    {
      "constant": true,
      "inputs": [
        {
          "name": "ID",
          "type": "uint256"
        }
      ],
      "name": "getStationInfo",
      "outputs": [
        {
          "name": "rate",
          "type": "uint256"
        },
        {
          "name": "location",
          "type": "string"
        },
        {
          "name": "coinBalance",
          "type": "uint256"
        },
        {
          "name": "lastActivated",
          "type": "uint256"
        },
        {
          "name": "lastDuration",
          "type": "uint256"
        },
        {
          "name": "timenow",
          "type": "uint256"
        }
      ],
      "payable": false,
      "stateMutability": "view",
      "type": "function"
    },
    {
      "constant": true,
      "inputs": [
        {
          "name": "s",
          "type": "string"
        }
      ],
      "name": "stringToBytes",
      "outputs": [
        {
          "name": "",
          "type": "bytes32"
        }
      ],
      "payable": false,
      "stateMutability": "pure",
      "type": "function"
    },
    {
      "constant": false,
      "inputs": [],
      "name": "destroy",
      "outputs": [],
      "payable": false,
      "stateMutability": "nonpayable",
      "type": "function"
    }
  ],
  "bytecode": "0x6060604052341561000f57600080fd5b33600260006101000a81548173ffffffffffffffffffffffffffffffffffffffff021916908373ffffffffffffffffffffffffffffffffffffffff1602179055506000600381905550620186a0600581905550600060048190555061158c806100796000396000f3006060604052600436106100e6576000357c0100000000000000000000000000000000000000000000000000000000900463ffffffff168063106e054d146100eb57806319a50f49146101a357806328152c9b146101cc578063284ab2db1461023b57806331feb671146102645780633a843e8a146103e757806383197ef0146104445780638da5cb5b1461045957806392f859db146104ae5780639de8779e14610583578063cea6ab98146105ba578063d34788c714610741578063d637dcfa146107b0578063e106fb4b14610888578063f571545b14610901578063f8be2f9e1461092a575b600080fd5b34156100f657600080fd5b61010c60048080359060200190919050506109e9565b6040518086815260200180602001858152602001848152602001838152602001828103825286818151815260200191508051906020019080838360005b83811015610164578082015181840152602081019050610149565b50505050905090810190601f1680156101915780820380516001836020036101000a031916815260200191505b50965050505050505060405180910390f35b34156101ae57600080fd5b6101b6610b16565b6040518082815260200191505060405180910390f35b34156101d757600080fd5b610239600480803590602001908201803590602001908080601f01602080910402602001604051908101604052809392919081815260200183838082843782019150505050505091908035906020019091908035906020019091905050610b1c565b005b341561024657600080fd5b61024e610c5a565b6040518082815260200191505060405180910390f35b341561026f57600080fd5b6102bf600480803590602001908201803590602001908080601f01602080910402602001604051908101604052809392919081815260200183838082843782019150505050505091905050610c60565b6040518080602001806020018673ffffffffffffffffffffffffffffffffffffffff1673ffffffffffffffffffffffffffffffffffffffff168152602001858152602001848152602001838103835288818151815260200191508051906020019080838360005b83811015610341578082015181840152602081019050610326565b50505050905090810190601f16801561036e5780820380516001836020036101000a031916815260200191505b50838103825287818151815260200191508051906020019080838360005b838110156103a757808201518184015260208101905061038c565b50505050905090810190601f1680156103d45780820380516001836020036101000a031916815260200191505b5097505050505050505060405180910390f35b34156103f257600080fd5b610442600480803590602001908201803590602001908080601f01602080910402602001604051908101604052809392919081815260200183838082843782019150505050505091905050610e7b565b005b341561044f57600080fd5b610457610eef565b005b341561046457600080fd5b61046c610f82565b604051808273ffffffffffffffffffffffffffffffffffffffff1673ffffffffffffffffffffffffffffffffffffffff16815260200191505060405180910390f35b34156104b957600080fd5b6104cf6004808035906020019091905050610fa8565b60405180868152602001806020018581526020018481526020018381526020018281038252868181546001816001161561010002031660029004815260200191508054600181600116156101000203166002900480156105705780601f1061054557610100808354040283529160200191610570565b820191906000526020600020905b81548152906001019060200180831161055357829003601f168201915b5050965050505050505060405180910390f35b341561058e57600080fd5b6105a46004808035906020019091905050610fdd565b6040518082815260200191505060405180910390f35b34156105c557600080fd5b6105df600480803560001916906020019091905050611015565b6040518080602001806020018673ffffffffffffffffffffffffffffffffffffffff1673ffffffffffffffffffffffffffffffffffffffff1681526020018581526020018481526020018381038352888181546001816001161561010002031660029004815260200191508054600181600116156101000203166002900480156106aa5780601f1061067f576101008083540402835291602001916106aa565b820191906000526020600020905b81548152906001019060200180831161068d57829003601f168201915b505083810382528781815460018160011615610100020316600290048152602001915080546001816001161561010002031660029004801561072d5780601f106107025761010080835404028352916020019161072d565b820191906000526020600020905b81548152906001019060200180831161071057829003601f168201915b505097505050505050505060405180910390f35b341561074c57600080fd5b6107ae600480803590602001909190803590602001909190803590602001908201803590602001908080601f01602080910402602001604051908101604052809392919081815260200183838082843782019150505050505091905050611069565b005b610886600480803590602001908201803590602001908080601f0160208091040260200160405190810160405280939291908181526020018383808284378201915050505050509190803590602001908201803590602001908080601f0160208091040260200160405190810160405280939291908181526020018383808284378201915050505050509190803590602001908201803590602001908080601f01602080910402602001604051908101604052809392919081815260200183838082843782019150505050505091905050611158565b005b341561089357600080fd5b6108e3600480803590602001908201803590602001908080601f01602080910402602001604051908101604052809392919081815260200183838082843782019150505050505091905050611284565b60405180826000191660001916815260200191505060405180910390f35b341561090c57600080fd5b61091461135c565b6040518082815260200191505060405180910390f35b341561093557600080fd5b61094b6004808035906020019091905050611362565b6040518087815260200180602001868152602001858152602001848152602001838152602001828103825287818151815260200191508051906020019080838360005b838110156109a957808201518184015260208101905061098e565b50505050905090810190601f1680156109d65780820380516001836020036101000a031916815260200191505b5097505050505050505060405180910390f35b60006109f3611493565b600080600060016000878152602001908152602001600020600001549450600160008781526020019081526020016000206001018054600181600116156101000203166002900480601f016020809104026020016040519081016040528092919081815260200182805460018160011615610100020316600290048015610abb5780601f10610a9057610100808354040283529160200191610abb565b820191906000526020600020905b815481529060010190602001808311610a9e57829003601f168201915b5050505050935060016000878152602001908152602001600020600201549250600160008781526020019081526020016000206003015491506001600087815260200190815260200160002060040154905091939590929450565b60035481565b600080610b2885611284565b9150600060016000868152602001908152602001600020600001541415610b4e57600080fd5b6001600085815260200190815260200160002060040154600160008681526020019081526020016000206003015401421015610b8957600080fd5b826001600086815260200190815260200160002060000154029050806000808460001916600019168152602001908152602001600020600401541015610bce57600080fd5b806000808460001916600019168152602001908152602001600020600401600082825403925050819055508060016000868152602001908152602001600020600201600082825401925050819055504260016000868152602001908152602001600020600301819055508260016000868152602001908152602001600020600401819055505050505050565b60045481565b610c68611493565b610c70611493565b600080600080610c7f87611284565b905060008082600019166000191681526020019081526020016000206000018054600181600116156101000203166002900480601f016020809104026020016040519081016040528092919081815260200182805460018160011615610100020316600290048015610d325780601f10610d0757610100808354040283529160200191610d32565b820191906000526020600020905b815481529060010190602001808311610d1557829003601f168201915b5050505050955060008082600019166000191681526020019081526020016000206001018054600181600116156101000203166002900480601f016020809104026020016040519081016040528092919081815260200182805460018160011615610100020316600290048015610dea5780601f10610dbf57610100808354040283529160200191610dea565b820191906000526020600020905b815481529060010190602001808311610dcd57829003601f168201915b50505050509450600080826000191660001916815260200190815260200160002060020160009054906101000a900473ffffffffffffffffffffffffffffffffffffffff169350600080826000191660001916815260200190815260200160002060030154925060008082600019166000191681526020019081526020016000206004015491505091939590929450565b6000610e8682611284565b90503460008083600019166000191681526020019081526020016000206003016000828254019250508190555060055434811515610ec057fe5b046000808360001916600019168152602001908152602001600020600401600082825401925050819055505050565b600260009054906101000a900473ffffffffffffffffffffffffffffffffffffffff1673ffffffffffffffffffffffffffffffffffffffff163373ffffffffffffffffffffffffffffffffffffffff161415610f8057600260009054906101000a900473ffffffffffffffffffffffffffffffffffffffff1673ffffffffffffffffffffffffffffffffffffffff16ff5b565b600260009054906101000a900473ffffffffffffffffffffffffffffffffffffffff1681565b600160205280600052604060002060009150905080600001549080600101908060020154908060030154908060040154905085565b600060016000838152602001908152602001600020600401546001600084815260200190815260200160002060030154019050919050565b6000602052806000526040600020600091509050806000019080600101908060020160009054906101000a900473ffffffffffffffffffffffffffffffffffffffff16908060030154908060040154905085565b6000600260009054906101000a900473ffffffffffffffffffffffffffffffffffffffff1673ffffffffffffffffffffffffffffffffffffffff163373ffffffffffffffffffffffffffffffffffffffff161415156110c757600080fd5b600060016000868152602001908152602001600020600001541415156110ec57600080fd5b600160008581526020019081526020016000209050600081600201819055506000816003018190555060008160040181905550818160010190805190602001906111379291906114a7565b50828160000181905550600160046000828254019250508190555050505050565b60008061116485611284565b91506000806000846000191660001916815260200190815260200160002060020160009054906101000a900473ffffffffffffffffffffffffffffffffffffffff1673ffffffffffffffffffffffffffffffffffffffff1611156111c757600080fd5b60008083600019166000191681526020019081526020016000209050338160020160006101000a81548173ffffffffffffffffffffffffffffffffffffffff021916908373ffffffffffffffffffffffffffffffffffffffff1602179055508381600001908051906020019061123e9291906114a7565b50828160010190805190602001906112579291906114a7565b50600081600301819055506000816004018190555060016003600082825401925050819055505050505050565b600061128e611527565b60008084925060009150600090505b602081101561134e5782518110156113305782818151811015156112bd57fe5b9060200101517f010000000000000000000000000000000000000000000000000000000000000090047f0100000000000000000000000000000000000000000000000000000000000000027f01000000000000000000000000000000000000000000000000000000000000009004821791505b601f81101561134157610100820291505b808060010191505061129d565b816001029350505050919050565b60055481565b600061136c611493565b60008060008060016000888152602001908152602001600020600001549550600160008881526020019081526020016000206001018054600181600116156101000203166002900480601f0160208091040260200160405190810160405280929190818152602001828054600181600116156101000203166002900480156114355780601f1061140a57610100808354040283529160200191611435565b820191906000526020600020905b81548152906001019060200180831161141857829003601f168201915b5050505050945060016000888152602001908152602001600020600201549350600160008881526020019081526020016000206003015492506001600088815260200190815260200160002060040154915042905091939550919395565b602060405190810160405280600081525090565b828054600181600116156101000203166002900490600052602060002090601f016020900481019282601f106114e857805160ff1916838001178555611516565b82800160010185558215611516579182015b828111156115155782518255916020019190600101906114fa565b5b509050611523919061153b565b5090565b602060405190810160405280600081525090565b61155d91905b80821115611559576000816000905550600101611541565b5090565b905600a165627a7a7230582092fa5d756f502b43ec159c926b13bc2e8ec26ce3b1db6eea01d14918665c8d470029",
  "source": "/*\nMIT License\n\nCopyright (c) 2017 Arshdeep Bahga and Vijay Madisetti\n\nPermission is hereby granted, free of charge, to any person obtaining a copy\nof this software and associated documentation files (the \"Software\"), to deal\nin the Software without restriction, including without limitation the rights\nto use, copy, modify, merge, publish, distribute, sublicense, and/or sell\ncopies of the Software, and to permit persons to whom the Software is\nfurnished to do so, subject to the following conditions:\n\nThe above copyright notice and this permission notice shall be included in all\ncopies or substantial portions of the Software.\n\nTHE SOFTWARE IS PROVIDED \"AS IS\", WITHOUT WARRANTY OF ANY KIND, EXPRESS OR\nIMPLIED, INCLUDING BUT NOT LIMITED TO THE WARRANTIES OF MERCHANTABILITY,\nFITNESS FOR A PARTICULAR PURPOSE AND NONINFRINGEMENT. IN NO EVENT SHALL THE\nAUTHORS OR COPYRIGHT HOLDERS BE LIABLE FOR ANY CLAIM, DAMAGES OR OTHER\nLIABILITY, WHETHER IN AN ACTION OF CONTRACT, TORT OR OTHERWISE, ARISING FROM,\nOUT OF OR IN CONNECTION WITH THE SOFTWARE OR THE USE OR OTHER DEALINGS IN THE\nSOFTWARE.\n*/\n\npragma solidity ^0.4.19;\n\ncontract SolarCharge {\n\tstruct User {\n\t\tstring name;\n\t\tstring mobileno;\n\t    address userAccount;\n        uint amountPaid;\n        uint solcoins;\n    }\n\n    mapping (bytes32 => User) public users;\n\n    struct Station {\n        uint rate;\n        string location;\n        uint coinBalance;\n        uint lastActivated;\n        uint lastDuration;\n    }\n\n    mapping (uint => Station) public stations;\n\n\taddress public owner;\n\tuint public numUsers;\n\tuint public numStations;\n\tuint public coinRate;\n\n\n\n\tfunction SolarCharge() public {\n\t\towner = msg.sender;\n\t\tnumUsers = 0;\n\t\tcoinRate = 100000;\n\t\tnumStations = 0;\n\t}\n\n\tfunction registerUser(string _email, string _name,string _mobileno) payable public {\n\t\tbytes32 email = stringToBytes(_email);\n\n\t\tif(users[email].userAccount>0){\n\t\t\trevert();\n\t\t}\n\n\t\tUser storage u = users[email];\n        u.userAccount = msg.sender;\n        u.name = _name;\n\t\t\t\tu.mobileno = _mobileno;\n        u.amountPaid = 0;\n        u.solcoins =0;\n\t\tnumUsers += 1;\n\t}\n\n\tfunction buyCoins(string _email)  public {\n\t\tbytes32 email = stringToBytes(_email);\n\n\t\t/*if(users[email].userAccount!=msg.sender){\n\t\t\trevert();\n\t\t}*/\n        users[email].amountPaid += msg.value;\n        users[email].solcoins += msg.value/coinRate;\n\n\t}\n\n\tfunction addStation(uint ID, uint _rate, string _location) public {\n\t\tif(msg.sender!=owner){\n\t\t\trevert();\n\t\t}\n\t\tif(stations[ID].rate!=0){\n\t\t\trevert();\n\t\t}\n\n\t\tStation storage s = stations[ID];\n        s.coinBalance = 0;\n        s.lastActivated = 0;\n        s.lastDuration = 0;\n        s.location = _location;\n        s.rate = _rate;\n        numStations += 1;\n\t}\n\n\tfunction activateStation(string _email, uint ID, uint duration) public {\n\t\tbytes32 email = stringToBytes(_email);\n\n\t\t// Station does not exist\n\t\tif(stations[ID].rate==0){\n\t\t\trevert();\n\t\t}\n\n\t\t// Station is busy\n\t\tif(now<(stations[ID].lastActivated+stations[ID].lastDuration)){\n\t\t\trevert();\n\t\t}\n\n\t\tuint coinsRequired = stations[ID].rate*duration;\n\n\t\t// User has insufficient coins\n\t\tif (users[email].solcoins<coinsRequired){\n\t\t\trevert();\n\t\t}\n\n        users[email].solcoins -= coinsRequired;\n        stations[ID].coinBalance += coinsRequired;\n        stations[ID].lastActivated = now;\n        stations[ID].lastDuration = duration;\n\t}\n\n\tfunction getStationState(uint256 ID) public constant returns (uint calcValue){\n\t\tcalcValue = (stations[ID].lastActivated+stations[ID].lastDuration);\n\t}\n\n\tfunction getUser(string _email) public constant returns (string name, string number,address userAccount, uint amountPaid, uint solcoins) {\n\t\tbytes32 email = stringToBytes(_email);\n\t\tname = users[email].name;\n\t\tnumber = users[email].mobileno;\n\t\tuserAccount = users[email].userAccount;\n        amountPaid = users[email].amountPaid;\n        solcoins = users[email].solcoins;\n\t}\n\n\tfunction getStation(uint ID) public constant returns (uint rate,\n            string location, uint coinBalance,\n            uint lastActivated, uint lastDuration){\n\t\trate = stations[ID].rate;\n        location = stations[ID].location;\n        coinBalance = stations[ID].coinBalance;\n        lastActivated = stations[ID].lastActivated;\n        lastDuration = stations[ID].lastDuration;\n\t}\n\n\tfunction getStationInfo(uint ID) public constant returns (uint rate,\n\t\t\t\t\t\tstring location, uint coinBalance,\n\t\t\t\t\t\tuint lastActivated, uint lastDuration,uint timenow){\n\t\trate = stations[ID].rate;\n\t\t\t\tlocation = stations[ID].location;\n\t\t\t\tcoinBalance = stations[ID].coinBalance;\n\t\t\t\tlastActivated = stations[ID].lastActivated;\n\t\t\t\tlastDuration = stations[ID].lastDuration;\n\n\t\t\t\ttimenow = now;\n\t}\n\n\n\n\t// Converts 'string' to 'bytes32'\n\tfunction stringToBytes(string s) public pure returns (bytes32) {\n\t  bytes memory b = bytes(s);\n\t  uint r = 0;\n\t  for (uint i = 0; i < 32; i++) {\n\t      if (i < b.length) {\n\t          r = r | uint(b[i]);\n\t      }\n\t      if (i < 31) r = r * 256;\n\t  }\n\t  return bytes32(r);\n\t}\n\n\tfunction destroy() public{\n\t\tif (msg.sender == owner) {\n\t\t\tselfdestruct(owner);\n\t\t}\n\t}\n}\n",
  "sourcePath": "/home/ubuntu/solarCharge/contracts/SolarCharge.sol",
  "compiler": {
    "name": "solc",
    "version": "0.4.19+commit.c4cbbb05.Emscripten.clang"
  },
  "schemaVersion": "1.0.1",
  "updatedAt": "2018-02-14T06:03:18.132Z"
}